{
  "contractName": "Courses",
  "abi": [
    {
      "inputs": [],
      "payable": true,
      "stateMutability": "payable",
      "type": "constructor"
    },
    {
      "anonymous": false,
      "inputs": [
        {
          "indexed": false,
          "internalType": "address",
          "name": "publisher",
          "type": "address"
        },
        {
          "indexed": false,
          "internalType": "uint256",
          "name": "index",
          "type": "uint256"
        },
        {
          "indexed": false,
          "internalType": "string",
          "name": "title",
          "type": "string"
        },
        {
          "indexed": false,
          "internalType": "uint256",
          "name": "price",
          "type": "uint256"
        }
      ],
      "name": "AddCourse",
      "type": "event"
    },
    {
      "anonymous": false,
      "inputs": [
        {
          "indexed": false,
          "internalType": "address",
          "name": "buyer",
          "type": "address"
        },
        {
          "indexed": false,
          "internalType": "uint256",
          "name": "index",
          "type": "uint256"
        },
        {
          "indexed": false,
          "internalType": "string",
          "name": "title",
          "type": "string"
        }
      ],
      "name": "BuyCourse",
      "type": "event"
    },
    {
      "anonymous": false,
      "inputs": [
        {
          "indexed": false,
          "internalType": "address",
          "name": "buyer",
          "type": "address"
        },
        {
          "indexed": false,
          "internalType": "address",
          "name": "origin_owner",
          "type": "address"
        },
        {
          "indexed": false,
          "internalType": "uint256",
          "name": "index",
          "type": "uint256"
        },
        {
          "indexed": false,
          "internalType": "string",
          "name": "title",
          "type": "string"
        }
      ],
      "name": "BuyCourseCopyRight",
      "type": "event"
    },
    {
      "anonymous": false,
      "inputs": [
        {
          "indexed": false,
          "internalType": "address",
          "name": "Changer",
          "type": "address"
        },
        {
          "indexed": false,
          "internalType": "uint256",
          "name": "index",
          "type": "uint256"
        },
        {
          "indexed": false,
          "internalType": "string",
          "name": "title",
          "type": "string"
        },
        {
          "indexed": false,
          "internalType": "uint256",
          "name": "price",
          "type": "uint256"
        },
        {
          "indexed": false,
          "internalType": "uint256",
          "name": "copyrightprice",
          "type": "uint256"
        }
      ],
      "name": "CourseInfoChange",
      "type": "event"
    },
    {
      "anonymous": false,
      "inputs": [
        {
          "indexed": false,
          "internalType": "address",
          "name": "buyer",
          "type": "address"
        },
        {
          "indexed": false,
          "internalType": "uint256",
          "name": "index",
          "type": "uint256"
        },
        {
          "indexed": false,
          "internalType": "string",
          "name": "title",
          "type": "string"
        }
      ],
      "name": "VerifyAnsReward",
      "type": "event"
    },
    {
      "constant": true,
      "inputs": [
        {
          "internalType": "uint256",
          "name": "",
          "type": "uint256"
        }
      ],
      "name": "course_for_public_list",
      "outputs": [
        {
          "internalType": "address payable",
          "name": "publisher",
          "type": "address"
        },
        {
          "internalType": "string",
          "name": "title",
          "type": "string"
        },
        {
          "internalType": "uint256",
          "name": "price",
          "type": "uint256"
        },
        {
          "internalType": "uint256",
          "name": "courseize",
          "type": "uint256"
        },
        {
          "internalType": "bytes32",
          "name": "courseHash",
          "type": "bytes32"
        },
        {
          "internalType": "uint256",
          "name": "copyrightprice",
          "type": "uint256"
        }
      ],
      "payable": false,
      "stateMutability": "view",
      "type": "function"
    },
    {
      "constant": true,
      "inputs": [],
      "name": "course_num",
      "outputs": [
        {
          "internalType": "uint256",
          "name": "",
          "type": "uint256"
        }
      ],
      "payable": false,
      "stateMutability": "view",
      "type": "function"
    },
    {
      "constant": true,
      "inputs": [],
      "name": "name",
      "outputs": [
        {
          "internalType": "string",
          "name": "",
          "type": "string"
        }
      ],
      "payable": false,
      "stateMutability": "view",
      "type": "function"
    },
    {
      "constant": true,
      "inputs": [],
      "name": "symbol",
      "outputs": [
        {
          "internalType": "string",
          "name": "",
          "type": "string"
        }
      ],
      "payable": false,
      "stateMutability": "view",
      "type": "function"
    },
    {
      "constant": false,
      "inputs": [
        {
          "internalType": "string",
          "name": "title",
          "type": "string"
        },
        {
          "internalType": "string",
          "name": "content",
          "type": "string"
        },
        {
          "internalType": "string",
          "name": "answer",
          "type": "string"
        },
        {
          "internalType": "uint256",
          "name": "price",
          "type": "uint256"
        },
        {
          "internalType": "uint256",
          "name": "copyrightprice",
          "type": "uint256"
        }
      ],
      "name": "addCourse",
      "outputs": [],
      "payable": false,
      "stateMutability": "nonpayable",
      "type": "function"
    },
    {
      "constant": false,
      "inputs": [
        {
          "internalType": "uint256",
          "name": "index",
          "type": "uint256"
        }
      ],
      "name": "buyCourse",
      "outputs": [
        {
          "internalType": "string",
          "name": "",
          "type": "string"
        }
      ],
      "payable": true,
      "stateMutability": "payable",
      "type": "function"
    },
    {
      "constant": false,
      "inputs": [
        {
          "internalType": "uint256",
          "name": "index",
          "type": "uint256"
        }
      ],
      "name": "buyCourseCopyRight",
      "outputs": [
        {
          "internalType": "string",
          "name": "",
          "type": "string"
        }
      ],
      "payable": true,
      "stateMutability": "payable",
      "type": "function"
    },
    {
      "constant": true,
      "inputs": [
        {
          "internalType": "string",
          "name": "a",
          "type": "string"
        },
        {
          "internalType": "string",
          "name": "b",
          "type": "string"
        }
      ],
      "name": "isEqual",
      "outputs": [
        {
          "internalType": "bool",
          "name": "",
          "type": "bool"
        }
      ],
      "payable": false,
      "stateMutability": "pure",
      "type": "function"
    },
    {
      "constant": false,
      "inputs": [
        {
          "internalType": "uint256",
          "name": "index",
          "type": "uint256"
        },
        {
          "internalType": "string",
          "name": "student_ans",
          "type": "string"
        }
      ],
      "name": "verifyAnsReward",
      "outputs": [
        {
          "internalType": "string",
          "name": "",
          "type": "string"
        },
        {
          "internalType": "uint256",
          "name": "ret_reward",
          "type": "uint256"
        }
      ],
      "payable": true,
      "stateMutability": "payable",
      "type": "function"
    },
    {
      "constant": false,
      "inputs": [
        {
          "internalType": "uint256",
          "name": "index",
          "type": "uint256"
        },
        {
          "internalType": "string",
          "name": "title",
          "type": "string"
        },
        {
          "internalType": "string",
          "name": "answer",
          "type": "string"
        },
        {
          "internalType": "uint256",
          "name": "price",
          "type": "uint256"
        },
        {
          "internalType": "uint256",
          "name": "copyrightprice",
          "type": "uint256"
        }
      ],
      "name": "courseInfoChange",
      "outputs": [
        {
          "internalType": "string",
          "name": "",
          "type": "string"
        }
      ],
      "payable": false,
      "stateMutability": "nonpayable",
      "type": "function"
    }
  ],
  "bytecode": "0x60806040526040518060400160405280600d81526020017f5765623320436f757273656573000000000000000000000000000000000000008152506000908051906020019062000051929190620000ab565b506040518060400160405280600881526020017f436f757273654553000000000000000000000000000000000000000000000000815250600190805190602001906200009f929190620000ab565b5060006002556200015a565b828054600181600116156101000203166002900490600052602060002090601f016020900481019282601f10620000ee57805160ff19168380011785556200011f565b828001600101855582156200011f579182015b828111156200011e57825182559160200191906001019062000101565b5b5090506200012e919062000132565b5090565b6200015791905b808211156200015357600081600090555060010162000139565b5090565b90565b612426806200016a6000396000f3fe6080604052600436106100915760003560e01c80633caa41fb116100595780633caa41fb1461044057806345ee4e91146104e7578063465c4105146106f1578063860d8d591461086857806395d89b4114610a5e57610091565b80630635fa4a1461009657806306fdde03146101db5780630ec7b2281461026b578063194d73a2146102965780632b459b011461033d575b600080fd5b610159600480360360408110156100ac57600080fd5b8101908080359060200190929190803590602001906401000000008111156100d357600080fd5b8201836020820111156100e557600080fd5b8035906020019184600183028401116401000000008311171561010757600080fd5b91908080601f016020809104026020016040519081016040528093929190818152602001838380828437600081840152601f19601f820116905080830192505050505050509192919290505050610aee565b6040518080602001838152602001828103825284818151815260200191508051906020019080838360005b8381101561019f578082015181840152602081019050610184565b50505050905090810190601f1680156101cc5780820380516001836020036101000a031916815260200191505b50935050505060405180910390f35b3480156101e757600080fd5b506101f0610f3f565b6040518080602001828103825283818151815260200191508051906020019080838360005b83811015610230578082015181840152602081019050610215565b50505050905090810190601f16801561025d5780820380516001836020036101000a031916815260200191505b509250505060405180910390f35b34801561027757600080fd5b50610280610fdd565b6040518082815260200191505060405180910390f35b6102c2600480360360208110156102ac57600080fd5b8101908080359060200190929190505050610fe3565b6040518080602001828103825283818151815260200191508051906020019080838360005b838110156103025780820151818401526020810190506102e7565b50505050905090810190601f16801561032f5780820380516001836020036101000a031916815260200191505b509250505060405180910390f35b34801561034957600080fd5b506103766004803603602081101561036057600080fd5b8101908080359060200190929190505050611417565b604051808773ffffffffffffffffffffffffffffffffffffffff1673ffffffffffffffffffffffffffffffffffffffff16815260200180602001868152602001858152602001848152602001838152602001828103825287818151815260200191508051906020019080838360005b838110156104005780820151818401526020810190506103e5565b50505050905090810190601f16801561042d5780820380516001836020036101000a031916815260200191505b5097505050505050505060405180910390f35b61046c6004803603602081101561045657600080fd5b810190808035906020019092919050505061150b565b6040518080602001828103825283818151815260200191508051906020019080838360005b838110156104ac578082015181840152602081019050610491565b50505050905090810190601f1680156104d95780820380516001836020036101000a031916815260200191505b509250505060405180910390f35b3480156104f357600080fd5b506106ef600480360360a081101561050a57600080fd5b810190808035906020019064010000000081111561052757600080fd5b82018360208201111561053957600080fd5b8035906020019184600183028401116401000000008311171561055b57600080fd5b91908080601f016020809104026020016040519081016040528093929190818152602001838380828437600081840152601f19601f820116905080830192505050505050509192919290803590602001906401000000008111156105be57600080fd5b8201836020820111156105d057600080fd5b803590602001918460018302840111640100000000831117156105f257600080fd5b91908080601f016020809104026020016040519081016040528093929190818152602001838380828437600081840152601f19601f8201169050808301925050505050505091929192908035906020019064010000000081111561065557600080fd5b82018360208201111561066757600080fd5b8035906020019184600183028401116401000000008311171561068957600080fd5b91908080601f016020809104026020016040519081016040528093929190818152602001838380828437600081840152601f19601f82011690508083019250505050505050919291929080359060200190929190803590602001909291905050506119af565b005b3480156106fd57600080fd5b5061084e6004803603604081101561071457600080fd5b810190808035906020019064010000000081111561073157600080fd5b82018360208201111561074357600080fd5b8035906020019184600183028401116401000000008311171561076557600080fd5b91908080601f016020809104026020016040519081016040528093929190818152602001838380828437600081840152601f19601f820116905080830192505050505050509192919290803590602001906401000000008111156107c857600080fd5b8201836020820111156107da57600080fd5b803590602001918460018302840111640100000000831117156107fc57600080fd5b91908080601f016020809104026020016040519081016040528093929190818152602001838380828437600081840152601f19601f820116905080830192505050505050509192919290505050611de6565b604051808215151515815260200191505060405180910390f35b34801561087457600080fd5b506109e3600480360360a081101561088b57600080fd5b8101908080359060200190929190803590602001906401000000008111156108b257600080fd5b8201836020820111156108c457600080fd5b803590602001918460018302840111640100000000831117156108e657600080fd5b91908080601f016020809104026020016040519081016040528093929190818152602001838380828437600081840152601f19601f8201169050808301925050505050505091929192908035906020019064010000000081111561094957600080fd5b82018360208201111561095b57600080fd5b8035906020019184600183028401116401000000008311171561097d57600080fd5b91908080601f016020809104026020016040519081016040528093929190818152602001838380828437600081840152601f19601f8201169050808301925050505050505091929192908035906020019092919080359060200190929190505050611eb3565b6040518080602001828103825283818151815260200191508051906020019080838360005b83811015610a23578082015181840152602081019050610a08565b50505050905090810190601f168015610a505780820380516001836020036101000a031916815260200191505b509250505060405180910390f35b348015610a6a57600080fd5b50610a73612172565b6040518080602001828103825283818151815260200191508051906020019080838360005b83811015610ab3578082015181840152602081019050610a98565b50505050905090810190601f168015610ae05780820380516001836020036101000a031916815260200191505b509250505060405180910390f35b60606000610afa612210565b600360008681526020019081526020016000206040518060c00160405290816000820160009054906101000a900473ffffffffffffffffffffffffffffffffffffffff1673ffffffffffffffffffffffffffffffffffffffff1673ffffffffffffffffffffffffffffffffffffffff168152602001600182018054600181600116156101000203166002900480601f016020809104026020016040519081016040528092919081815260200182805460018160011615610100020316600290048015610c075780601f10610bdc57610100808354040283529160200191610c07565b820191906000526020600020905b815481529060010190602001808311610bea57829003601f168201915b50505050508152602001600282018054600181600116156101000203166002900480601f016020809104026020016040519081016040528092919081815260200182805460018160011615610100020316600290048015610ca95780601f10610c7e57610100808354040283529160200191610ca9565b820191906000526020600020905b815481529060010190602001808311610c8c57829003601f168201915b50505050508152602001600382018054600181600116156101000203166002900480601f016020809104026020016040519081016040528092919081815260200182805460018160011615610100020316600290048015610d4b5780601f10610d2057610100808354040283529160200191610d4b565b820191906000526020600020905b815481529060010190602001808311610d2e57829003601f168201915b50505050508152602001600482015481526020016005820154815250509050610d78848260600151611de6565b15610ef6576000600a826080015181610d8d57fe5b0490503373ffffffffffffffffffffffffffffffffffffffff166108fc829081150290604051600060405180830381858888f19350505050158015610dd6573d6000803e3d6000fd5b507f4335f4f773b3c255b7bd78a8e24a7de0b6cc86e6b449387b033467b95fb2709233878460200151604051808473ffffffffffffffffffffffffffffffffffffffff1673ffffffffffffffffffffffffffffffffffffffff16815260200183815260200180602001828103825283818151815260200191508051906020019080838360005b83811015610e77578082015181840152602081019050610e5c565b50505050905090810190601f168015610ea45780820380516001836020036101000a031916815260200191505b5094505050505060405180910390a1806040518060400160405280601f81526020017f5269676874416e732c2047657420726577617264202c2073756363657373210081525090935093505050610f38565b60006040518060400160405280601b81526020017f77726f6e6720616e73212054727920616761696e206c617465722100000000008152509080905092509250505b9250929050565b60008054600181600116156101000203166002900480601f016020809104026020016040519081016040528092919081815260200182805460018160011615610100020316600290048015610fd55780601f10610faa57610100808354040283529160200191610fd5565b820191906000526020600020905b815481529060010190602001808311610fb857829003601f168201915b505050505081565b60025481565b6060610fed612210565b600360008481526020019081526020016000206040518060c00160405290816000820160009054906101000a900473ffffffffffffffffffffffffffffffffffffffff1673ffffffffffffffffffffffffffffffffffffffff1673ffffffffffffffffffffffffffffffffffffffff168152602001600182018054600181600116156101000203166002900480601f0160208091040260200160405190810160405280929190818152602001828054600181600116156101000203166002900480156110fa5780601f106110cf576101008083540402835291602001916110fa565b820191906000526020600020905b8154815290600101906020018083116110dd57829003601f168201915b50505050508152602001600282018054600181600116156101000203166002900480601f01602080910402602001604051908101604052809291908181526020018280546001816001161561010002031660029004801561119c5780601f106111715761010080835404028352916020019161119c565b820191906000526020600020905b81548152906001019060200180831161117f57829003601f168201915b50505050508152602001600382018054600181600116156101000203166002900480601f01602080910402602001604051908101604052809291908181526020018280546001816001161561010002031660029004801561123e5780601f106112135761010080835404028352916020019161123e565b820191906000526020600020905b81548152906001019060200180831161122157829003601f168201915b5050505050815260200160048201548152602001600582015481525050905080608001513414156113ae57806000015173ffffffffffffffffffffffffffffffffffffffff166108fc600560048460800151028161129857fe5b049081150290604051600060405180830381858888f193505050501580156112c4573d6000803e3d6000fd5b507f47055554110091a6ac46c28fc31a50ed5cfac92425ee2e740be743b70df0de3533848360200151604051808473ffffffffffffffffffffffffffffffffffffffff1673ffffffffffffffffffffffffffffffffffffffff16815260200183815260200180602001828103825283818151815260200191508051906020019080838360005b8381101561136557808201518184015260208101905061134a565b50505050905090810190601f1680156113925780820380516001836020036101000a031916815260200191505b5094505050505060405180910390a18060400151915050611412565b3373ffffffffffffffffffffffffffffffffffffffff166108fc349081150290604051600060405180830381858888f193505050501580156113f4573d6000803e3d6000fd5b506040518060600160405280602181526020016123d1602191399150505b919050565b60046020528060005260406000206000915090508060000160009054906101000a900473ffffffffffffffffffffffffffffffffffffffff1690806001018054600181600116156101000203166002900480601f0160208091040260200160405190810160405280929190818152602001828054600181600116156101000203166002900480156114e95780601f106114be576101008083540402835291602001916114e9565b820191906000526020600020905b8154815290600101906020018083116114cc57829003601f168201915b5050505050908060020154908060030154908060040154908060050154905086565b6060611515612210565b600360008481526020019081526020016000206040518060c00160405290816000820160009054906101000a900473ffffffffffffffffffffffffffffffffffffffff1673ffffffffffffffffffffffffffffffffffffffff1673ffffffffffffffffffffffffffffffffffffffff168152602001600182018054600181600116156101000203166002900480601f0160208091040260200160405190810160405280929190818152602001828054600181600116156101000203166002900480156116225780601f106115f757610100808354040283529160200191611622565b820191906000526020600020905b81548152906001019060200180831161160557829003601f168201915b50505050508152602001600282018054600181600116156101000203166002900480601f0160208091040260200160405190810160405280929190818152602001828054600181600116156101000203166002900480156116c45780601f10611699576101008083540402835291602001916116c4565b820191906000526020600020905b8154815290600101906020018083116116a757829003601f168201915b50505050508152602001600382018054600181600116156101000203166002900480601f0160208091040260200160405190810160405280929190818152602001828054600181600116156101000203166002900480156117665780601f1061173b57610100808354040283529160200191611766565b820191906000526020600020905b81548152906001019060200180831161174957829003601f168201915b505050505081526020016004820154815260200160058201548152505090508060a0015134141561194657806000015173ffffffffffffffffffffffffffffffffffffffff166108fc600560048460a0015102816117c057fe5b049081150290604051600060405180830381858888f193505050501580156117ec573d6000803e3d6000fd5b507f554167452e9f0307e0f889c01bee22a3cbcfc56d944f729321da3b35023a525c338260000151858460200151604051808573ffffffffffffffffffffffffffffffffffffffff1673ffffffffffffffffffffffffffffffffffffffff1681526020018473ffffffffffffffffffffffffffffffffffffffff1673ffffffffffffffffffffffffffffffffffffffff16815260200183815260200180602001828103825283818151815260200191508051906020019080838360005b838110156118c45780820151818401526020810190506118a9565b50505050905090810190601f1680156118f15780820380516001836020036101000a031916815260200191505b509550505050505060405180910390a133816000019073ffffffffffffffffffffffffffffffffffffffff16908173ffffffffffffffffffffffffffffffffffffffff168152505080604001519150506119aa565b3373ffffffffffffffffffffffffffffffffffffffff166108fc349081150290604051600060405180830381858888f1935050505015801561198c573d6000803e3d6000fd5b506040518060600160405280602181526020016123d1602191399150505b919050565b6119b7612210565b6040518060c001604052803373ffffffffffffffffffffffffffffffffffffffff16815260200187815260200186815260200185815260200184815260200183815250905060006002866040516020018080602001828103825283818151815260200191508051906020019080838360005b83811015611a44578082015181840152602081019050611a29565b50505050905090810190601f168015611a715780820380516001836020036101000a031916815260200191505b50925050506040516020818303038152906040526040518082805190602001908083835b60208310611ab85780518252602082019150602081019050602083039250611a95565b6001836020036101000a038019825116818451168082178552505050505050905001915050602060405180830381855afa158015611afa573d6000803e3d6000fd5b5050506040513d6020811015611b0f57600080fd5b81019080805190602001909291905050509050600086519050611b3061225c565b6040518060c001604052803373ffffffffffffffffffffffffffffffffffffffff1681526020018a81526020018781526020018381526020018481526020018681525090508360036000600254815260200190815260200160002060008201518160000160006101000a81548173ffffffffffffffffffffffffffffffffffffffff021916908373ffffffffffffffffffffffffffffffffffffffff1602179055506020820151816001019080519060200190611bee9291906122ab565b506040820151816002019080519060200190611c0b9291906122ab565b506060820151816003019080519060200190611c289291906122ab565b506080820151816004015560a082015181600501559050508060046000600254815260200190815260200160002060008201518160000160006101000a81548173ffffffffffffffffffffffffffffffffffffffff021916908373ffffffffffffffffffffffffffffffffffffffff1602179055506020820151816001019080519060200190611cb99291906122ab565b5060408201518160020155606082015181600301556080820151816004015560a0820151816005015590505060016002600082825401925050819055507fa05eda8acf61f383d1c106c242b6524baa85656a32785ddf3ab09bb6dbf8c25f336001600254038b89604051808573ffffffffffffffffffffffffffffffffffffffff1673ffffffffffffffffffffffffffffffffffffffff16815260200184815260200180602001838152602001828103825284818151815260200191508051906020019080838360005b83811015611d9e578082015181840152602081019050611d83565b50505050905090810190601f168015611dcb5780820380516001836020036101000a031916815260200191505b509550505050505060405180910390a1505050505050505050565b6000606083905060608390508051825114611e0657600092505050611ead565b60008090505b8251811015611ea557818181518110611e2157fe5b602001015160f81c60f81b7effffffffffffffffffffffffffffffffffffffffffffffffffffffffffffff1916838281518110611e5a57fe5b602001015160f81c60f81b7effffffffffffffffffffffffffffffffffffffffffffffffffffffffffffff191614611e985760009350505050611ead565b8080600101915050611e0c565b506001925050505b92915050565b60606003600087815260200190815260200160002060000160009054906101000a900473ffffffffffffffffffffffffffffffffffffffff1673ffffffffffffffffffffffffffffffffffffffff163373ffffffffffffffffffffffffffffffffffffffff1614611f5b576040518060400160405280602081526020017f4e6f74207075626c69736865722c207065726d697373696f6e2064656e6965648152509050612169565b84600360008881526020019081526020016000206001019080519060200190611f8592919061232b565b5084600460008881526020019081526020016000206001019080519060200190611fb092919061232b565b5083600360008881526020019081526020016000206003019080519060200190611fdb92919061232b565b508260036000888152602001908152602001600020600401819055508260046000888152602001908152602001600020600201819055508160036000888152602001908152602001600020600501819055508160046000888152602001908152602001600020600501819055507fbb70a4080141818dcf5a622d53b6f2b098538f5c7fc565ce9c3fba45a9aa3d813387878686604051808673ffffffffffffffffffffffffffffffffffffffff1673ffffffffffffffffffffffffffffffffffffffff16815260200185815260200180602001848152602001838152602001828103825285818151815260200191508051906020019080838360005b838110156120f25780820151818401526020810190506120d7565b50505050905090810190601f16801561211f5780820380516001836020036101000a031916815260200191505b50965050505050505060405180910390a16040518060400160405280602081526020017f5375636365737366756c6c79206368616e67656420636f7572736520696e666f81525090505b95945050505050565b60018054600181600116156101000203166002900480601f0160208091040260200160405190810160405280929190818152602001828054600181600116156101000203166002900480156122085780601f106121dd57610100808354040283529160200191612208565b820191906000526020600020905b8154815290600101906020018083116121eb57829003601f168201915b505050505081565b6040518060c00160405280600073ffffffffffffffffffffffffffffffffffffffff16815260200160608152602001606081526020016060815260200160008152602001600081525090565b6040518060c00160405280600073ffffffffffffffffffffffffffffffffffffffff16815260200160608152602001600081526020016000815260200160008019168152602001600081525090565b828054600181600116156101000203166002900490600052602060002090601f016020900481019282601f106122ec57805160ff191683800117855561231a565b8280016001018555821561231a579182015b828111156123195782518255916020019190600101906122fe565b5b50905061232791906123ab565b5090565b828054600181600116156101000203166002900490600052602060002090601f016020900481019282601f1061236c57805160ff191683800117855561239a565b8280016001018555821561239a579182015b8281111561239957825182559160200191906001019061237e565b5b5090506123a791906123ab565b5090565b6123cd91905b808211156123c95760008160009055506001016123b1565b5090565b9056fe77726f6e6720616d6f756e74206f662045544820746f6b656e7320706169642121a265627a7a72315820da56be08906e167fb97c1004162af9e0349f28b2f66c3b39391be61a1c2ab11964736f6c63430005100032",
  "source": "pragma solidity ^0.5.0;\n\ncontract Courses {\n    string public name = \"Web3 Coursees\";\n    string public symbol = \"CourseES\";\n\n    struct Course {      // \n        address payable publisher;\n        string title;\n        string content;\n        string answer;\n        uint price;     // wei\n        uint copyrightprice;\n    }\n\n    struct CourseForPublic {     // \n        address payable publisher;\n        string title;\n        uint price;\n        \n        //course\n        uint courseize;\n        bytes32 courseHash;\n        uint copyrightprice;\n    }\n\n\n    event AddCourse (\n        address publisher,\n        uint index,\n        string title,\n        uint price\n    );\n\n    event BuyCourse (\n        address buyer,\n        uint index,\n        string title\n    );\n\n\n\n    event BuyCourseCopyRight(\n        address buyer, \n        address origin_owner,\n        uint index,\n        string title\n    );\n\n    event VerifyAnsReward(\n        address buyer,\n        uint index,\n        string title\n    );\n    \n    event CourseInfoChange(\n        address Changer,\n        uint index,\n        string title,\n        uint price,\n        uint copyrightprice\n    );\n    \n    uint public course_num = 0;\n\n    // \n    mapping(uint => Course) course_list;\n    //\n    mapping(uint => CourseForPublic) public course_for_public_list;\n\n    constructor() public payable {}\n\n\n    // function calHashSHA256(string memory input) public returns(bytes32){\n    //     bytes32 hash = sha256(input);\n    //     return hash;\n    // }\n\n    function addCourse(string memory title, \n                      string memory content,\n                      string memory answer,\n                      uint price,\n                      uint copyrightprice) public {\n\n        Course memory new_course = Course(msg.sender, title, content, answer, price,copyrightprice);\n        \n        //sizehash\n        //\n        bytes32 hash = sha256(abi.encode(content));\n        // bytes32 hash = keccak256(abi.encode(content));\n        uint coursesize = bytes(content).length;\n        CourseForPublic memory new_course_for_public = CourseForPublic(msg.sender, title, price,coursesize, hash ,copyrightprice);\n\n        course_list[course_num] = new_course;\n        course_for_public_list[course_num] = new_course_for_public;\n        course_num += 1;\n        emit AddCourse(msg.sender, course_num-1, title, price);\n    }\n    \n\n    function buyCourse(uint index) public payable returns (string memory) {\n        Course memory course = course_list[index];\n        // \n        if (msg.value == course.price) {\n\n            // \n            course.publisher.transfer(course.price*4/5);\n            emit BuyCourse(msg.sender, index, course.title);\n            return course.content;\n        }\n        else { \n            msg.sender.transfer(msg.value);\n            return \"wrong amount of ETH tokens paid!!\";\n        }\n    }\n\n    //\n    function buyCourseCopyRight(uint index) public payable returns (string memory) {\n        Course memory course = course_list[index];\n        // \n        if (msg.value == course.copyrightprice) {\n            //\n            course.publisher.transfer(course.copyrightprice*4/5);\n            emit BuyCourseCopyRight(msg.sender,course.publisher, index, course.title);\n\n            // \n            course.publisher = msg.sender;\n            return course.content;\n        }\n\n        else { \n            msg.sender.transfer(msg.value);\n            return \"wrong amount of ETH tokens paid!!\";\n        }\n    }\n\n    //\n    function isEqual(string memory a, string memory b) public pure returns (bool) {\n        bytes memory aa = bytes(a);\n        bytes memory bb = bytes(b);\n        // \n        if (aa.length != bb.length) return false;\n        // \n        for(uint i = 0; i < aa.length; i ++) {\n            if(aa[i] != bb[i]) return false;\n        }\n \n        return true;\n    }\n\n\n    function verifyAnsReward(uint index, string memory student_ans) public payable returns (string memory, uint ret_reward) {\n        Course memory course = course_list[index];\n        if (isEqual(student_ans,course.answer)) {\n            //\n            uint reward = course.price/10;\n            msg.sender.transfer(reward);\n            emit VerifyAnsReward(msg.sender, index, course.title);\n            return (\"RightAns, Get reward , success!\",reward);\n        }\n        else {\n            return (\"wrong ans! Try again later!\",0);\n        }\n    }\n\n\n    //title\n    //doge\n    function courseInfoChange(\n                    uint index,\n                    string memory title, \n                    // string memory content,\n                    string memory answer,\n                    uint price,\n                    uint copyrightprice) public returns (string memory) {\n        \n        // bug\n        if (msg.sender != course_list[index].publisher) {\n            return(\"Not publisher, permission denied\");\n        }\n        else{\n            course_list[index].title = title;\n            course_for_public_list[index].title = title;\n\n            course_list[index].answer = answer;\n            // course_for_public_list[index].answer = answer;\n\n            course_list[index].price = price;\n            course_for_public_list[index].price = price;\n\n            course_list[index].copyrightprice = copyrightprice;\n            course_for_public_list[index].copyrightprice = copyrightprice;\n\n            emit CourseInfoChange(msg.sender,index,title,price,copyrightprice);\n            return (\"Successfully changed course info\");\n        }\n    }\n\n}",
  "sourcePath": "/Users/dr_ls/Downloads/eth_swap/src/contracts/Courses.sol",
  "compiler": {
    "name": "solc",
    "version": "0.5.16+commit.9c3226ce.Emscripten.clang"
  },
  "schemaVersion": "3.0.23",
  "updatedAt": "2022-06-10T12:41:12.990Z",
  "devdoc": {
    "methods": {}
  },
  "userdoc": {
    "methods": {}
  }
}