{
  "contractName": "Courses",
  "abi": [
    {
      "inputs": [],
      "payable": true,
      "stateMutability": "payable",
      "type": "constructor"
    },
    {
      "anonymous": false,
      "inputs": [
        {
          "indexed": false,
          "internalType": "address",
          "name": "publisher",
          "type": "address"
        },
        {
          "indexed": false,
          "internalType": "uint256",
          "name": "index",
          "type": "uint256"
        },
        {
          "indexed": false,
          "internalType": "string",
          "name": "title",
          "type": "string"
        },
        {
          "indexed": false,
          "internalType": "uint256",
          "name": "price",
          "type": "uint256"
        }
      ],
      "name": "AddCourse",
      "type": "event"
    },
    {
      "anonymous": false,
      "inputs": [
        {
          "indexed": false,
          "internalType": "address",
          "name": "buyer",
          "type": "address"
        },
        {
          "indexed": false,
          "internalType": "uint256",
          "name": "index",
          "type": "uint256"
        },
        {
          "indexed": false,
          "internalType": "string",
          "name": "title",
          "type": "string"
        }
      ],
      "name": "BuyCourse",
      "type": "event"
    },
    {
      "anonymous": false,
      "inputs": [
        {
          "indexed": false,
          "internalType": "address",
          "name": "buyer",
          "type": "address"
        },
        {
          "indexed": false,
          "internalType": "uint256",
          "name": "index",
          "type": "uint256"
        },
        {
          "indexed": false,
          "internalType": "string",
          "name": "title",
          "type": "string"
        }
      ],
      "name": "BuyCourseCopyRight",
      "type": "event"
    },
    {
      "anonymous": false,
      "inputs": [
        {
          "indexed": false,
          "internalType": "address",
          "name": "Changer",
          "type": "address"
        },
        {
          "indexed": false,
          "internalType": "uint256",
          "name": "index",
          "type": "uint256"
        },
        {
          "indexed": false,
          "internalType": "string",
          "name": "title",
          "type": "string"
        }
      ],
      "name": "CourseInfoChange",
      "type": "event"
    },
    {
      "anonymous": false,
      "inputs": [
        {
          "indexed": false,
          "internalType": "address",
          "name": "buyer",
          "type": "address"
        },
        {
          "indexed": false,
          "internalType": "uint256",
          "name": "index",
          "type": "uint256"
        },
        {
          "indexed": false,
          "internalType": "string",
          "name": "title",
          "type": "string"
        }
      ],
      "name": "VerifyAnsReward",
      "type": "event"
    },
    {
      "constant": true,
      "inputs": [
        {
          "internalType": "uint256",
          "name": "",
          "type": "uint256"
        }
      ],
      "name": "course_for_public_list",
      "outputs": [
        {
          "internalType": "address payable",
          "name": "publisher",
          "type": "address"
        },
        {
          "internalType": "string",
          "name": "title",
          "type": "string"
        },
        {
          "internalType": "uint256",
          "name": "price",
          "type": "uint256"
        },
        {
          "internalType": "uint256",
          "name": "courseize",
          "type": "uint256"
        },
        {
          "internalType": "bytes32",
          "name": "courseHash",
          "type": "bytes32"
        },
        {
          "internalType": "uint256",
          "name": "copyrightprice",
          "type": "uint256"
        }
      ],
      "payable": false,
      "stateMutability": "view",
      "type": "function"
    },
    {
      "constant": true,
      "inputs": [],
      "name": "course_num",
      "outputs": [
        {
          "internalType": "uint256",
          "name": "",
          "type": "uint256"
        }
      ],
      "payable": false,
      "stateMutability": "view",
      "type": "function"
    },
    {
      "constant": true,
      "inputs": [],
      "name": "name",
      "outputs": [
        {
          "internalType": "string",
          "name": "",
          "type": "string"
        }
      ],
      "payable": false,
      "stateMutability": "view",
      "type": "function"
    },
    {
      "constant": true,
      "inputs": [],
      "name": "symbol",
      "outputs": [
        {
          "internalType": "string",
          "name": "",
          "type": "string"
        }
      ],
      "payable": false,
      "stateMutability": "view",
      "type": "function"
    },
    {
      "constant": false,
      "inputs": [
        {
          "internalType": "string",
          "name": "title",
          "type": "string"
        },
        {
          "internalType": "string",
          "name": "content",
          "type": "string"
        },
        {
          "internalType": "string",
          "name": "answer",
          "type": "string"
        },
        {
          "internalType": "uint256",
          "name": "price",
          "type": "uint256"
        },
        {
          "internalType": "uint256",
          "name": "copyrightprice",
          "type": "uint256"
        }
      ],
      "name": "addCourse",
      "outputs": [],
      "payable": false,
      "stateMutability": "nonpayable",
      "type": "function"
    },
    {
      "constant": false,
      "inputs": [
        {
          "internalType": "uint256",
          "name": "index",
          "type": "uint256"
        }
      ],
      "name": "buyCourse",
      "outputs": [
        {
          "internalType": "string",
          "name": "",
          "type": "string"
        }
      ],
      "payable": true,
      "stateMutability": "payable",
      "type": "function"
    },
    {
      "constant": false,
      "inputs": [
        {
          "internalType": "uint256",
          "name": "index",
          "type": "uint256"
        }
      ],
      "name": "buyCourseCopyRight",
      "outputs": [
        {
          "internalType": "string",
          "name": "",
          "type": "string"
        }
      ],
      "payable": true,
      "stateMutability": "payable",
      "type": "function"
    },
    {
      "constant": true,
      "inputs": [
        {
          "internalType": "string",
          "name": "a",
          "type": "string"
        },
        {
          "internalType": "string",
          "name": "b",
          "type": "string"
        }
      ],
      "name": "isEqual",
      "outputs": [
        {
          "internalType": "bool",
          "name": "",
          "type": "bool"
        }
      ],
      "payable": false,
      "stateMutability": "pure",
      "type": "function"
    },
    {
      "constant": false,
      "inputs": [
        {
          "internalType": "uint256",
          "name": "index",
          "type": "uint256"
        },
        {
          "internalType": "string",
          "name": "student_ans",
          "type": "string"
        }
      ],
      "name": "verifyAnsReward",
      "outputs": [
        {
          "internalType": "string",
          "name": "",
          "type": "string"
        },
        {
          "internalType": "uint256",
          "name": "ret_reward",
          "type": "uint256"
        }
      ],
      "payable": true,
      "stateMutability": "payable",
      "type": "function"
    }
  ],
  "bytecode": "0x60806040526040518060400160405280600d81526020017f5765623320436f757273656573000000000000000000000000000000000000008152506000908051906020019062000051929190620000ab565b506040518060400160405280600881526020017f436f757273654553000000000000000000000000000000000000000000000000815250600190805190602001906200009f929190620000ab565b5060006002556200015a565b828054600181600116156101000203166002900490600052602060002090601f016020900481019282601f10620000ee57805160ff19168380011785556200011f565b828001600101855582156200011f579182015b828111156200011e57825182559160200191906001019062000101565b5b5090506200012e919062000132565b5090565b6200015791905b808211156200015357600081600090555060010162000139565b5090565b90565b611eae806200016a6000396000f3fe6080604052600436106100865760003560e01c80632b459b01116100595780632b459b01146103325780633caa41fb1461043557806345ee4e91146104dc578063465c4105146106e657806395d89b411461085d57610086565b80630635fa4a1461008b57806306fdde03146101d05780630ec7b22814610260578063194d73a21461028b575b600080fd5b61014e600480360360408110156100a157600080fd5b8101908080359060200190929190803590602001906401000000008111156100c857600080fd5b8201836020820111156100da57600080fd5b803590602001918460018302840111640100000000831117156100fc57600080fd5b91908080601f016020809104026020016040519081016040528093929190818152602001838380828437600081840152601f19601f8201169050808301925050505050505091929192905050506108ed565b6040518080602001838152602001828103825284818151815260200191508051906020019080838360005b83811015610194578082015181840152602081019050610179565b50505050905090810190601f1680156101c15780820380516001836020036101000a031916815260200191505b50935050505060405180910390f35b3480156101dc57600080fd5b506101e5610d3e565b6040518080602001828103825283818151815260200191508051906020019080838360005b8381101561022557808201518184015260208101905061020a565b50505050905090810190601f1680156102525780820380516001836020036101000a031916815260200191505b509250505060405180910390f35b34801561026c57600080fd5b50610275610ddc565b6040518082815260200191505060405180910390f35b6102b7600480360360208110156102a157600080fd5b8101908080359060200190929190505050610de2565b6040518080602001828103825283818151815260200191508051906020019080838360005b838110156102f75780820151818401526020810190506102dc565b50505050905090810190601f1680156103245780820380516001836020036101000a031916815260200191505b509250505060405180910390f35b34801561033e57600080fd5b5061036b6004803603602081101561035557600080fd5b8101908080359060200190929190505050611216565b604051808773ffffffffffffffffffffffffffffffffffffffff1673ffffffffffffffffffffffffffffffffffffffff16815260200180602001868152602001858152602001848152602001838152602001828103825287818151815260200191508051906020019080838360005b838110156103f55780820151818401526020810190506103da565b50505050905090810190601f1680156104225780820380516001836020036101000a031916815260200191505b5097505050505050505060405180910390f35b6104616004803603602081101561044b57600080fd5b810190808035906020019092919050505061130a565b6040518080602001828103825283818151815260200191508051906020019080838360005b838110156104a1578082015181840152602081019050610486565b50505050905090810190601f1680156104ce5780820380516001836020036101000a031916815260200191505b509250505060405180910390f35b3480156104e857600080fd5b506106e4600480360360a08110156104ff57600080fd5b810190808035906020019064010000000081111561051c57600080fd5b82018360208201111561052e57600080fd5b8035906020019184600183028401116401000000008311171561055057600080fd5b91908080601f016020809104026020016040519081016040528093929190818152602001838380828437600081840152601f19601f820116905080830192505050505050509192919290803590602001906401000000008111156105b357600080fd5b8201836020820111156105c557600080fd5b803590602001918460018302840111640100000000831117156105e757600080fd5b91908080601f016020809104026020016040519081016040528093929190818152602001838380828437600081840152601f19601f8201169050808301925050505050505091929192908035906020019064010000000081111561064a57600080fd5b82018360208201111561065c57600080fd5b8035906020019184600183028401116401000000008311171561067e57600080fd5b91908080601f016020809104026020016040519081016040528093929190818152602001838380828437600081840152601f19601f8201169050808301925050505050505091929192908035906020019092919080359060200190929190505050611776565b005b3480156106f257600080fd5b506108436004803603604081101561070957600080fd5b810190808035906020019064010000000081111561072657600080fd5b82018360208201111561073857600080fd5b8035906020019184600183028401116401000000008311171561075a57600080fd5b91908080601f016020809104026020016040519081016040528093929190818152602001838380828437600081840152601f19601f820116905080830192505050505050509192919290803590602001906401000000008111156107bd57600080fd5b8201836020820111156107cf57600080fd5b803590602001918460018302840111640100000000831117156107f157600080fd5b91908080601f016020809104026020016040519081016040528093929190818152602001838380828437600081840152601f19601f820116905080830192505050505050509192919290505050611bad565b604051808215151515815260200191505060405180910390f35b34801561086957600080fd5b50610872611c7a565b6040518080602001828103825283818151815260200191508051906020019080838360005b838110156108b2578082015181840152602081019050610897565b50505050905090810190601f1680156108df5780820380516001836020036101000a031916815260200191505b509250505060405180910390f35b606060006108f9611d18565b600360008681526020019081526020016000206040518060c00160405290816000820160009054906101000a900473ffffffffffffffffffffffffffffffffffffffff1673ffffffffffffffffffffffffffffffffffffffff1673ffffffffffffffffffffffffffffffffffffffff168152602001600182018054600181600116156101000203166002900480601f016020809104026020016040519081016040528092919081815260200182805460018160011615610100020316600290048015610a065780601f106109db57610100808354040283529160200191610a06565b820191906000526020600020905b8154815290600101906020018083116109e957829003601f168201915b50505050508152602001600282018054600181600116156101000203166002900480601f016020809104026020016040519081016040528092919081815260200182805460018160011615610100020316600290048015610aa85780601f10610a7d57610100808354040283529160200191610aa8565b820191906000526020600020905b815481529060010190602001808311610a8b57829003601f168201915b50505050508152602001600382018054600181600116156101000203166002900480601f016020809104026020016040519081016040528092919081815260200182805460018160011615610100020316600290048015610b4a5780601f10610b1f57610100808354040283529160200191610b4a565b820191906000526020600020905b815481529060010190602001808311610b2d57829003601f168201915b50505050508152602001600482015481526020016005820154815250509050610b77848260600151611bad565b15610cf5576000600a826080015181610b8c57fe5b0490503373ffffffffffffffffffffffffffffffffffffffff166108fc829081150290604051600060405180830381858888f19350505050158015610bd5573d6000803e3d6000fd5b507f4335f4f773b3c255b7bd78a8e24a7de0b6cc86e6b449387b033467b95fb2709233878460200151604051808473ffffffffffffffffffffffffffffffffffffffff1673ffffffffffffffffffffffffffffffffffffffff16815260200183815260200180602001828103825283818151815260200191508051906020019080838360005b83811015610c76578082015181840152602081019050610c5b565b50505050905090810190601f168015610ca35780820380516001836020036101000a031916815260200191505b5094505050505060405180910390a1806040518060400160405280601f81526020017f5269676874416e732c2047657420726577617264202c2073756363657373210081525090935093505050610d37565b60006040518060400160405280601b81526020017f77726f6e6720616e73212054727920616761696e206c617465722100000000008152509080905092509250505b9250929050565b60008054600181600116156101000203166002900480601f016020809104026020016040519081016040528092919081815260200182805460018160011615610100020316600290048015610dd45780601f10610da957610100808354040283529160200191610dd4565b820191906000526020600020905b815481529060010190602001808311610db757829003601f168201915b505050505081565b60025481565b6060610dec611d18565b600360008481526020019081526020016000206040518060c00160405290816000820160009054906101000a900473ffffffffffffffffffffffffffffffffffffffff1673ffffffffffffffffffffffffffffffffffffffff1673ffffffffffffffffffffffffffffffffffffffff168152602001600182018054600181600116156101000203166002900480601f016020809104026020016040519081016040528092919081815260200182805460018160011615610100020316600290048015610ef95780601f10610ece57610100808354040283529160200191610ef9565b820191906000526020600020905b815481529060010190602001808311610edc57829003601f168201915b50505050508152602001600282018054600181600116156101000203166002900480601f016020809104026020016040519081016040528092919081815260200182805460018160011615610100020316600290048015610f9b5780601f10610f7057610100808354040283529160200191610f9b565b820191906000526020600020905b815481529060010190602001808311610f7e57829003601f168201915b50505050508152602001600382018054600181600116156101000203166002900480601f01602080910402602001604051908101604052809291908181526020018280546001816001161561010002031660029004801561103d5780601f106110125761010080835404028352916020019161103d565b820191906000526020600020905b81548152906001019060200180831161102057829003601f168201915b5050505050815260200160048201548152602001600582015481525050905080608001513414156111ad57806000015173ffffffffffffffffffffffffffffffffffffffff166108fc600560048460800151028161109757fe5b049081150290604051600060405180830381858888f193505050501580156110c3573d6000803e3d6000fd5b507f47055554110091a6ac46c28fc31a50ed5cfac92425ee2e740be743b70df0de3533848360200151604051808473ffffffffffffffffffffffffffffffffffffffff1673ffffffffffffffffffffffffffffffffffffffff16815260200183815260200180602001828103825283818151815260200191508051906020019080838360005b83811015611164578082015181840152602081019050611149565b50505050905090810190601f1680156111915780820380516001836020036101000a031916815260200191505b5094505050505060405180910390a18060400151915050611211565b3373ffffffffffffffffffffffffffffffffffffffff166108fc349081150290604051600060405180830381858888f193505050501580156111f3573d6000803e3d6000fd5b50604051806060016040528060218152602001611e59602191399150505b919050565b60046020528060005260406000206000915090508060000160009054906101000a900473ffffffffffffffffffffffffffffffffffffffff1690806001018054600181600116156101000203166002900480601f0160208091040260200160405190810160405280929190818152602001828054600181600116156101000203166002900480156112e85780601f106112bd576101008083540402835291602001916112e8565b820191906000526020600020905b8154815290600101906020018083116112cb57829003601f168201915b5050505050908060020154908060030154908060040154908060050154905086565b6060611314611d18565b600360008481526020019081526020016000206040518060c00160405290816000820160009054906101000a900473ffffffffffffffffffffffffffffffffffffffff1673ffffffffffffffffffffffffffffffffffffffff1673ffffffffffffffffffffffffffffffffffffffff168152602001600182018054600181600116156101000203166002900480601f0160208091040260200160405190810160405280929190818152602001828054600181600116156101000203166002900480156114215780601f106113f657610100808354040283529160200191611421565b820191906000526020600020905b81548152906001019060200180831161140457829003601f168201915b50505050508152602001600282018054600181600116156101000203166002900480601f0160208091040260200160405190810160405280929190818152602001828054600181600116156101000203166002900480156114c35780601f10611498576101008083540402835291602001916114c3565b820191906000526020600020905b8154815290600101906020018083116114a657829003601f168201915b50505050508152602001600382018054600181600116156101000203166002900480601f0160208091040260200160405190810160405280929190818152602001828054600181600116156101000203166002900480156115655780601f1061153a57610100808354040283529160200191611565565b820191906000526020600020905b81548152906001019060200180831161154857829003601f168201915b505050505081526020016004820154815260200160058201548152505090508060a0015134141561170d57806000015173ffffffffffffffffffffffffffffffffffffffff166108fc600560048460a0015102816115bf57fe5b049081150290604051600060405180830381858888f193505050501580156115eb573d6000803e3d6000fd5b507f55775f5d445e10294f281144d68a9fb57c7cbfddc71a9f7931d4539cb2c070db33848360200151604051808473ffffffffffffffffffffffffffffffffffffffff1673ffffffffffffffffffffffffffffffffffffffff16815260200183815260200180602001828103825283818151815260200191508051906020019080838360005b8381101561168c578082015181840152602081019050611671565b50505050905090810190601f1680156116b95780820380516001836020036101000a031916815260200191505b5094505050505060405180910390a133816000019073ffffffffffffffffffffffffffffffffffffffff16908173ffffffffffffffffffffffffffffffffffffffff16815250508060400151915050611771565b3373ffffffffffffffffffffffffffffffffffffffff166108fc349081150290604051600060405180830381858888f19350505050158015611753573d6000803e3d6000fd5b50604051806060016040528060218152602001611e59602191399150505b919050565b61177e611d18565b6040518060c001604052803373ffffffffffffffffffffffffffffffffffffffff16815260200187815260200186815260200185815260200184815260200183815250905060006002866040516020018080602001828103825283818151815260200191508051906020019080838360005b8381101561180b5780820151818401526020810190506117f0565b50505050905090810190601f1680156118385780820380516001836020036101000a031916815260200191505b50925050506040516020818303038152906040526040518082805190602001908083835b6020831061187f578051825260208201915060208101905060208303925061185c565b6001836020036101000a038019825116818451168082178552505050505050905001915050602060405180830381855afa1580156118c1573d6000803e3d6000fd5b5050506040513d60208110156118d657600080fd5b810190808051906020019092919050505090506000865190506118f7611d64565b6040518060c001604052803373ffffffffffffffffffffffffffffffffffffffff1681526020018a81526020018781526020018381526020018481526020018681525090508360036000600254815260200190815260200160002060008201518160000160006101000a81548173ffffffffffffffffffffffffffffffffffffffff021916908373ffffffffffffffffffffffffffffffffffffffff16021790555060208201518160010190805190602001906119b5929190611db3565b5060408201518160020190805190602001906119d2929190611db3565b5060608201518160030190805190602001906119ef929190611db3565b506080820151816004015560a082015181600501559050508060046000600254815260200190815260200160002060008201518160000160006101000a81548173ffffffffffffffffffffffffffffffffffffffff021916908373ffffffffffffffffffffffffffffffffffffffff1602179055506020820151816001019080519060200190611a80929190611db3565b5060408201518160020155606082015181600301556080820151816004015560a0820151816005015590505060016002600082825401925050819055507fa05eda8acf61f383d1c106c242b6524baa85656a32785ddf3ab09bb6dbf8c25f336001600254038b89604051808573ffffffffffffffffffffffffffffffffffffffff1673ffffffffffffffffffffffffffffffffffffffff16815260200184815260200180602001838152602001828103825284818151815260200191508051906020019080838360005b83811015611b65578082015181840152602081019050611b4a565b50505050905090810190601f168015611b925780820380516001836020036101000a031916815260200191505b509550505050505060405180910390a1505050505050505050565b6000606083905060608390508051825114611bcd57600092505050611c74565b60008090505b8251811015611c6c57818181518110611be857fe5b602001015160f81c60f81b7effffffffffffffffffffffffffffffffffffffffffffffffffffffffffffff1916838281518110611c2157fe5b602001015160f81c60f81b7effffffffffffffffffffffffffffffffffffffffffffffffffffffffffffff191614611c5f5760009350505050611c74565b8080600101915050611bd3565b506001925050505b92915050565b60018054600181600116156101000203166002900480601f016020809104026020016040519081016040528092919081815260200182805460018160011615610100020316600290048015611d105780601f10611ce557610100808354040283529160200191611d10565b820191906000526020600020905b815481529060010190602001808311611cf357829003601f168201915b505050505081565b6040518060c00160405280600073ffffffffffffffffffffffffffffffffffffffff16815260200160608152602001606081526020016060815260200160008152602001600081525090565b6040518060c00160405280600073ffffffffffffffffffffffffffffffffffffffff16815260200160608152602001600081526020016000815260200160008019168152602001600081525090565b828054600181600116156101000203166002900490600052602060002090601f016020900481019282601f10611df457805160ff1916838001178555611e22565b82800160010185558215611e22579182015b82811115611e21578251825591602001919060010190611e06565b5b509050611e2f9190611e33565b5090565b611e5591905b80821115611e51576000816000905550600101611e39565b5090565b9056fe77726f6e6720616d6f756e74206f662045544820746f6b656e7320706169642121a265627a7a72315820a9a1cc8224c2b19237f0e4d12075e406935771affac442eacaea427fbb53e4a364736f6c63430005100032",
  "source": "pragma solidity ^0.5.0;\n\ncontract Courses {\n    string public name = \"Web3 Coursees\";\n    string public symbol = \"CourseES\";\n\n    struct Course {      // \n        address payable publisher;\n        string title;\n        string content;\n        string answer;\n        uint price;     // wei\n\n        uint copyrightprice;\n    }\n\n    struct CourseForPublic {     // \n        address payable publisher;\n        string title;\n        uint price;\n        \n        //course\n        uint courseize;\n        bytes32 courseHash;\n        uint copyrightprice;\n    }\n\n\n    event AddCourse (\n        address publisher,\n        uint index,\n        string title,\n        uint price\n    );\n\n    event BuyCourse (\n        address buyer,\n        uint index,\n        string title\n    );\n\n    event CourseInfoChange(\n        address Changer,\n        uint index,\n        string title\n    );\n\n    event BuyCourseCopyRight(\n        address buyer, \n        uint index,\n        string title\n    );\n\n    event VerifyAnsReward(\n        address buyer,\n        uint index,\n        string title\n    );\n\n    \n    uint public course_num = 0;\n\n    // \n    mapping(uint => Course) course_list;\n\n    mapping(uint => CourseForPublic) public course_for_public_list;\n\n    constructor() public payable {}\n\n\n    // function calHashSHA256(string memory input) public returns(bytes32){\n    //     bytes32 hash = sha256(input);\n    //     return hash;\n    // }\n\n    function addCourse(string memory title, \n                      string memory content,\n                      string memory answer,\n                      uint price,\n                      uint copyrightprice) public {\n\n        Course memory new_course = Course(msg.sender, title, content, answer, price,copyrightprice);\n        \n        //sizehash\n        //\n        bytes32 hash = sha256(abi.encode(content));\n        // bytes32 hash = keccak256(abi.encode(content));\n        uint coursesize = bytes(content).length;\n        CourseForPublic memory new_course_for_public = CourseForPublic(msg.sender, title, price,coursesize, hash ,copyrightprice);\n\n        course_list[course_num] = new_course;\n        course_for_public_list[course_num] = new_course_for_public;\n        course_num += 1;\n        emit AddCourse(msg.sender, course_num-1, title, price);\n    }\n    \n    function buyCourse(uint index) public payable returns (string memory) {\n        Course memory course = course_list[index];\n        // \n        if (msg.value == course.price) {\n\n            // \n            course.publisher.transfer(course.price*4/5);\n            emit BuyCourse(msg.sender, index, course.title);\n            return course.content;\n        }\n        else { \n            msg.sender.transfer(msg.value);\n            return \"wrong amount of ETH tokens paid!!\";\n        }\n    }\n\n    function buyCourseCopyRight(uint index) public payable returns (string memory) {\n        Course memory course = course_list[index];\n        // \n        if (msg.value == course.copyrightprice) {\n            //\n            course.publisher.transfer(course.copyrightprice*4/5);\n            emit BuyCourseCopyRight(msg.sender, index, course.title);\n\n            // \n            course.publisher = msg.sender;\n            return course.content;\n        }\n\n        else { \n            msg.sender.transfer(msg.value);\n            return \"wrong amount of ETH tokens paid!!\";\n        }\n    }\n\n\n    function isEqual(string memory a, string memory b) public pure returns (bool) {\n        bytes memory aa = bytes(a);\n        bytes memory bb = bytes(b);\n        // \n        if (aa.length != bb.length) return false;\n        // \n        for(uint i = 0; i < aa.length; i ++) {\n            if(aa[i] != bb[i]) return false;\n        }\n \n        return true;\n    }\n\n\n    function verifyAnsReward(uint index, string memory student_ans) public payable returns (string memory, uint ret_reward) {\n        Course memory course = course_list[index];\n        if (isEqual(student_ans,course.answer)) {\n            //\n            uint reward = course.price/10;\n            msg.sender.transfer(reward);\n            emit VerifyAnsReward(msg.sender, index, course.title);\n            return (\"RightAns, Get reward , success!\",reward);\n        }\n        else { \n            // msg.sender.transfer(msg.value);\n            // Assert.equal()// assert or return?\n            return (\"wrong ans! Try again later!\",0);\n        }\n    }\n\n    //TODO: CourseInfoChange\n    // function courseInfoChange\n\n}",
  "sourcePath": "/Users/dr_ls/Downloads/eth_swap-master/src/contracts/Courses.sol",
  "compiler": {
    "name": "solc",
    "version": "0.5.16+commit.9c3226ce.Emscripten.clang"
  },
  "schemaVersion": "3.0.23",
  "updatedAt": "2022-06-10T03:02:48.583Z",
  "networkType": "ethereum",
  "devdoc": {
    "methods": {}
  },
  "userdoc": {
    "methods": {}
  }
}